:1000000000000420D9A3020001A4020003A40200FE
:1000100005A4020007A4020009A4020000000000D9
:100020000000000000000000000000000BA402001F
:100030000DA40200000000000FA4020011A40200A1
:10004000C17302004DD3020013A4020013A40200E6
:1000500013A4020013A4020013A4020013A40200BC
:1000600013A4020013A4020013A4020013A40200AC
:1000700013A402007153020013A4020013A402008F
:1000800013A4020013A4020013A4020013A402008C
:1000900013A4020013A4020013A4020013A402007C
:1000A00013A4020013A4020013A4020013A402006C
:1000B00013A4020013A402000000000000000000CE
:1000C00013A4020013A4020013A4020013A402004C
:1000D0004D4C020013A4020013A402003583020059
:1000E00013A4020013A40200C101030000000000D9
:1000F0000000000013A402000000000013A402008E
:1001000000000000000000000000000000000000EF
:1001100000000000000000000000000000000000DF
:1001200000000000000000000000000000000000CF
:1001300000000000000000000000000000000000BF
:1001400000000000000000000000000000000000AF
:10015000000000000000000000000000000000009F
:10016000000000000000000000000000000000008F
:10017000000000000000000000000000000000007F
:10018000000000000000000000000000000000006F
:10019000000000000000000000000000000000005F
:1001A000000000000000000000000000000000004F
:1001B000000000000000000000000000000000003F
:1001C000000000000000000000000000000000002F
:1001D000000000000000000000000000000000001F
:1001E000000000000000000000000000000000000F
:1001F00000000000000000000000000000000000FF
:1002000010B5054C237833B9044B13B10448AFF350
:1002100000800123237010BDD000002000000000EA
:100220005433040008B5034B1BB103490348AFF333
:10023000008008BD00000000D400002054330400FA
:10024000154B002B08BF134B9D46A3F5803A0021A8
:100250008B460F461348144A121A3BF021FC0F4BF1
:10026000002B00D098470E4B002B00D09847002061
:10027000002104000D000D48002802D00C48AFF307
:1002800000803BF0ABFB2000290000F015F83BF0AC
:100290007FFB00BF000008000000042000000000F9
:1002A00000000000D0000020D80101200000000064
:1002B000000000007047000070B505460E4631464C
:1002C000284625F02DF906F0BDFE044628B90C4B52
:1002D0000C4A0D4866213BF03DFB00F055F82046E6
:1002E00037F0B5F825F044F918B1204606F0B0FE15
:1002F000E5E7204607F08EF9204625F03FF9F1E7C3
:1003000049D1030044D1030052D1030038B504465B
:100310000D4600F061FA04F5647104F55D7000F0BB
:100320004AF9234604F21C41144A04F55F7000F0B8
:10033000A3F904F29633C4F8903304F222428023E6
:10034000A4F89433C4F81C24002340F21452A4F8F7
:100350001834A4F8202484F8383929462346084A5A
:1003600004F63C1008F01DFB22460649201D05F04E
:1003700060FE25F01BFA204638BD00BF990500003D
:1003800091040000BB03000010B5054C0146204657
:10039000FFF7BCFF00F0D0FA844200D0FEE710BDAA
:1003A000F0000020D0F8902300F296339A4203D157
:1003B00000F63C1008F018BB7047FFF7F3BF2DE9BB
:1003C000F8430446051D00F55D764FF0020801274D
:1003D000284605F058FF94F8183470B1022B11D05C
:1003E000D4F8901304F29630091A89B200294DD03E
:1003F00025F0E4F9002849D0FEE7012B2ED07BB18F
:10040000022BE5D1304600F011F90028E8D194F82C
:10041000383984F81804002BDAD084F83809D6E784
:10042000204600F08FFA08B124F082FC204600F04C
:1004300093FA0028D4D1304600F0C1F80028CFD17B
:10044000284605F0B5FF84F81874284605F0C7FF64
:1004500060B9284605F0CCFF84F8190494F8191403
:10046000304600F0B5F80028EFD0B9E794F8C09016
:10047000284606F0D9F8B9F1000F04D094F8C0303E
:100480000BB984F8387984F81884BBE7BDE8F883A1
:1004900008B500F051FABDE80840FFF790BF00F240
:1004A0009633C0F890338023A0F8943300F63C10C4
:1004B00008F09ABA08B500F03FFA18B1BDE8084054
:1004C000FFF7EDBF08BD38B504460D4600F034FA1D
:1004D00038B12A46214600F55F70BDE8384000F08B
:1004E000D3B838BDF0B50C46A1B016461F4600F093
:1004F0003DFA2346194A1A4D802168463BF0C4FE56
:1005000068463BF029FF69460246002001F0A2F947
:100510000024A742A0B20ED0292C0BD0A4EB84015A
:1005200004EB4400335D2A46803168443BF0ACFE66
:100530000134EEE7204600EB4000C0F18001094A9B
:1005400068443BF0A1FE68463BF006FF0DF1010157
:10055000421E002001F07EF921B0F0BD96D10300CB
:10056000AAD10300B0D1030038B5D0F81C3400F292
:1005700022455B1B04469BB251B91A46294601F03D
:1005800076F840F21453C4F81C54A4F8203438BD53
:100590002A46FFF7A7FFF4E7FFF7E6BF838843B1DA
:1005A00003685A1C026019708388013B8380002015
:1005B000704703207047002201608280704708B5B1
:1005C0004FF6FF7383807E210068FFF7E7FF08BDC9
:1005D0007E2938B505460C4600680AD87D2903D225
:1005E000112901D0132906D18388012B08D80320B3
:1005F00005E0F829F7E72146FFF7D0FF40B138BD05
:100600007D21FFF7CBFF84F020012868FFF7C6FFAC
:10061000AA88054B5440E4B2002033F8143083EA32
:100620001223AB80EBE700BFB4D10300F7B504465B
:100630000368A78893E80300FD436E46ADB286E8E1
:100640000300E9B22046FFF7C3FF034658B9290A61
:100650002046FFF7BDFF034628B97E212068FFF73B
:100660009DFF034628B122680098B18810609180F0
:10067000A780184603B0F0BD30B500250570C0E96D
:100680000112C0E9033530BD2DE9F843374E044669
:100690000D468F184FF00208AF4265D0237815F849
:1006A000011B012B24D0DBB1022BF5D16068B0F81F
:1006B0000490B9F1000F50D0B4F810C081F02001BF
:1006C00081EA0C02D2B236F8123083EA1C2323826C
:1006D000FFF764FF638A0133638201232370DBE742
:1006E0007E29D9D1012323704FF6FF732361D3E70D
:1006F0007D2917D07E2918D06068B0F80490B9F130
:10070000000F2AD0B4F810C081EA0C02D2B236F839
:10071000123083EA1C232382FFF740FF638A0133F0
:100720006382B9E784F80080B6E7638A002BDBD0E8
:10073000012B10D9228A4FF2B8039A420BD1636879
:100740001A68023A1A609A8802329A800021D4E923
:1007500002309847C8E70621F9E7A368E06803215B
:10076000984784F8009097E7BDE8F883B4D1030078
:1007700021282CD8DFE800F02E1113152B17191B98
:100780002B2B2B2B1D1F21232B2B2B2B2B2B2B27E9
:10079000252B2B2B2B2B2B2B2B29012070470E20AD
:1007A00070470B2070470C207047092070470320CA
:1007B00070470220704704207047112070471220B4
:1007C000704713207047142070471520704700F5BC
:1007D00080407047002070472DE9F04106460446EE
:1007E00046F8041B4FF40072884600F1F9013046C8
:1007F00005F004FC0025A66704F17C0304F19C02CB
:10080000C3E9005508339A42FAD1A4F89C50C4E9D0
:10081000285504F1A80005F06EFF3D4A84F8C05049
:10082000C823C4E9322304F1D4074FF6FF73A4F8B8
:10083000D030384AC4F8C45023464146384608F000
:10084000B0F800230022C4E93823C4E93A23042382
:1008500084F8F030304BC4F8DC501B68C4F8F43036
:10086000FF23A4F84033236884F8F85084F8F95241
:10087000A4F8FA52C4E9CE55C4E9D255C4E9D45516
:10088000C4E9D655C4E9D855C4E9DA5584F870539B
:1008900003B9FEE7214B22491C602246304605F091
:1008A000CBFB3C22002104F53F703BF0F9F804F546
:1008B000517006F0EBFD22461A49206806F0CCFB89
:1008C00022462068184906F005FC2068012106F040
:1008D0000AFC22462068154907F04EF92546206893
:1008E000002106F0ABFB2068114907F041F955F8EB
:1008F000E00B1049224607F07AF8772200212846BB
:1009000006F096F9384608F06FF82046BDE8F08109
:1009100000F8FF07C50C000078D40300380A002057
:10092000330D0000A147000091450000B1460000D2
:10093000F71900007B190000014B1868704700BFD1
:10094000380A002090F8F030042B1ABF90F8C0004D
:1009500080F001000020704790F8F030012B06BFB6
:1009600090F8C00080F0010000207047D0F860339C
:100970000133C0F8603370472DE9F843994690F889
:100980003C330D1E0446904608BF702513B10D2060
:10099000BDE8F88300F1E0062946304606F0C8F9C4
:1009A0000028F4D194F8FA2294F8FB329A420AD043
:1009B0000B220021304606F03BF904F1D40008F088
:1009C00013F80320E4E704F178072B460622802180
:1009D000384606F0FAF848B91FFA89F24146A06F86
:1009E00005F0F5FD10B9384606F0D2F80328CFD14E
:1009F000DEE700000138C0B204289ABF014B185C42
:100A000000207047BDD30300F8B511F00F0508D1E1
:100A1000022A04D11A462946E03006F009F9284690
:100A20000CE090F8FB6290F8FA72F41B0E2C06DDD5
:100A3000E0300E22002106F0FBF80320F8BD90F80C
:100A4000F942AC4217D0BE4215D93C460E2C02D911
:100A50000F3CE4B2FAE7BE3400EB840494F804C01F
:100A60001CF0100F0DD00CF00F0EAE4509D16FF336
:100A7000041C84F804C034460E2C05D90F3CE4B2A3
:100A8000FAE70137FFB2DEE7BE3400EB840401363B
:100A9000257961F30305EDB245F0100562F34615C3
:100AA0002571626863F3DE12626080F8FB620020E9
:100AB000C4E713460222FFF7A7BF38B511F0300F85
:100AC00000F1780408BFC0F8C420154600230622B0
:100AD000204606F07AF848B92946204605F0C1FFBD
:100AE00020B92046BDE8384006F052B838BD2DE99F
:100AF000F74304460E46014668469146984604F080
:100B000031F9DDE900570DB9F90717D504F1780877
:100B10004B4606223146404606F057F8D8B97B10BE
:100B2000FA0704EB030044BFE3585D59A84790B9A6
:100B3000404603B0BDE8F04306F02AB8B8F1000F14
:100B400007D00D223146204603B0BDE8F043FFF741
:100B5000B4BF4246F6E703B0BDE8F08370B5044683
:100B6000002694F8FA5294F8FB32AB4237D0BE35E7
:100B700004EB85021379D90616D404EB85052B798D
:100B80006FF304132B7194F8FA320133DBB20F2B9D
:100B900084F8FA32E5D194F8FB3284F8FA620E2B2D
:100BA0001AD90F3BDBB2FAE703F00F01526803F0EA
:100BB0006003402B41F08001C2F3D71205D12046DB
:100BC000FFF77BFF0028D8D070BDB3FA83F35B0931
:100BD0002046FFF78CFFF5E784F8FB32C1E70020E1
:100BE000F2E700002DE9F04F044685B003F0E2FD86
:100BF000D4E93823134350D004F1E00006F015F88F
:100C00002E4F029000254FF00109029AEBB2934259
:100C100043D2D4E93830C5F12001A5F12002EB40E0
:100C200000FA01F120FA02F20B43134303F001032F
:100C3000009300230193DDE900231343C5F120084D
:100C4000A5F1200602D10C370135DEE73A6852BB28
:100C50007A68772A09D12068039224F04FF808288F
:100C600098BF174B039A98BF1A5C80212046FFF764
:100C700024FF90B9D4E9381209FA06F629FA08F8DF
:100C800009FA05F346EA080621EA030A22EA060BF6
:100C90005AEA0B03C4E938ABD5D1012384F8703389
:100CA00005B0BDE8F08F94F87033002BE2D001233B
:100CB00080212046FFF71BFFDBE700BF7CD4030049
:100CC000B4D30300014B1868FFF78CBF380A00202B
:100CD00010B590F8C030044633B1D0F8F4308B42F0
:100CE00004BF002380F8C0302046FFF737FFF8B973
:100CF00094F8F81099B101230C222046FFF7F7FE73
:100D0000B0B994F8F03084F8F800042B07D0201D17
:100D100005F0B7FA0123C4F8F40084F8C030204687
:100D200003F006FC20B92046BDE81040FFF75ABF8B
:100D300010BDFFF7CDBFF8B500F178040546204699
:100D4000069EBDF81C7005F040FF50B93A4631468A
:100D5000A86F05F03CFC20B92046BDE8F84005F03E
:100D600017BFF8BD2DE9F04F042B87B004460F469E
:100D7000924602D0052B16D0FEE7014604A805F0E6
:100D800051F8DDE904654FF0070905F0010B9EB944
:100D9000BBF1000F10D10D2239462046FFF789FE26
:100DA00007B0BDE8F08F014604A805F089F84FF0C0
:100DB0000809DDE90465E8E704F1A808404605F004
:100DC000E0FD0DF10A0203A9404605F083FD40460F
:100DD00005F0DEFD6D10002384F83C336019BBF193
:100DE000000F01D063599E59B047012384F83C336A
:100DF000054618B1FFF7BCFC0246CDE7BDF80A3046
:100E00000193039B00934A46534639462046FFF719
:100E100092FF0028C4D02A46BEE708B50022FFF79B
:100E200048FE08BD38B50446006806F013F90021F5
:100E3000206806F088FD0021206806F017F972226C
:100E400080212046FFF739FE054648B104F1E00055
:100E50007722002105F0ECFE04F1D40007F0C4FD78
:100E6000284638BD30B5C3B004460D46002301A95D
:100E7000A830019305F011FD40B1FFF779FC294638
:100E800002462046FFF719FE43B030BD8DF807013A
:100E9000FF2202A90198783436F0DCFA4FF46F5340
:100EA00006222946204605F090FE0028ECD102A932
:100EB000204605F011FE0028E6D1204605F068FE28
:100EC000E2E710B50446006806F03EFA0146A06F5E
:100ED000BDE8104005F069BB10B50446006806F097
:100EE00053F90146A06FBDE8104005F05EBB00005D
:100EF00037B50023054601A9A830019305F095FCFC
:100F0000044690B99DF80410286806F048F9044694
:100F100058B9286806F018FA38B195F83A3323B171
:100F20000349286806F021FA0446204603B030BD84
:100F30004949000010B50446006823F0F3FF00287B
:100F400018BF0221A06F08BF0021BDE8104005F0C6
:100F50002CBB37B5002305460DF10701A8308DF8ED
:100F6000073005F0E0FB044650B99DF807301BB18F
:100F7000022B08D8012100E00146286823F0D4FFA5
:100F8000204603B030BD0724FAE710B5044654F8F4
:100F9000780B06F058F901462046BDE8104005F0F0
:100FA00004BD13B504460DF10601A83005F0E9FBB8
:100FB00020B9BDF80610206806F049F902B010BD4E
:100FC00010B50446006806F023F908220146A06F18
:100FD000BDE8104005F0FBBA13B50822044601A98C
:100FE000A83005F039FC18B90199206806F014F909
:100FF00002B010BD10B5044654F8780B06F048F95D
:1010000001462046BDE8104005F0CFBC90F83A13E9
:10101000806F05F0CABA000037B5002305460DF110
:101020000701A8308DF8073005F08DFB044678B92C
:10103000286806F089F938B19DF80730286853B15F
:10104000064906F092F904469DF8073085F83A33D0
:10105000204603B030BD06F080F9F4E749490000AE
:10106000F8B505460E460024012707FA04F333427B
:10107000E1B204D10134202CF7D1002004E0A86FA4
:1010800005F093FA0028F5D0F8BD0023F7B5054622
:101090000C460B6000F1A8070126B5F8AE20B5F8A4
:1010A000B0309A420FD00DF10701384605F03BFBF6
:1010B00050B99DF807301F2B08D8226806FA03F3B1
:1010C00013432360E9E7002003B0F0BD0720FBE7EE
:1010D000D0F8C810FFF7C4BF13B5002301A9044618
:1010E0000193FFF7D2FF10B9019BC4F8C83002B0DA
:1010F00010BDB0F8CC10783005F057BC00F1CC0131
:10110000A83005F03EBB10B50446006806F01CF997
:1011100048B194F94033013312D00221A06FBDE8E9
:10112000104005F042BA206806F0E2F850B9206895
:1011300006F0F8F80028F0D1206806F04CFC18B949
:101140000021EBE70121E9E70321E7E710B586B0CD
:10115000044600230DF11701A8308DF8173005F073
:10116000E2FA40B99DF81730032B03D8DFE803F00B
:1011700047050F370C2006B010BD0094234BB4F880
:10118000CC20D4F8C810206806F09EF8F3E7206859
:1011900006F0DAF8C8B194F94033013331D1D4F80C
:1011A000C82082B3531E13402DD15208D9B203F187
:1011B000010008D184F84033B4F8CC20144B2068E7
:1011C00006F0E7F8D7E70346EFE70094114BB4F8D1
:1011D000CC20D4F8C810206806F090F8CBE70B4B71
:1011E000019394F8CF300093029494F8CE30B4F881
:1011F000D020D4F8C810206806F0DBFBBBE7002045
:10120000B9E70D20B7E70720B5E700BF614400004C
:10121000CD4A0000C74400002DE9F84F0546E030F4
:1012200005F003FD0024DFF858808246A3464FF006
:101230000C09E3B2534520D2D5E93A30C4F120017C
:10124000A4F12002E34000FA01F10B4320FA02F27C
:10125000134303F001065F4656EA070301D1013448
:10126000E7E709FB04F305F1780053F8081005F0EF
:10127000F8FB0028F3D0BDE8F88F0020FBE700BFA3
:101280007CD40300F7B500230022C0E93A230446CA
:1012900000F1A80700F1E006B4F8B020B4F8AE30D1
:1012A0009A420BD001A9384605F0BFFA054648B965
:1012B00001220199304605F0F3FCEDE700252846B0
:1012C00003B0F0BD012341F2080280212046FFF760
:1012D0000EFCF4E713B5044601A9A83005F0A5FA01
:1012E00028B90122019904F1E00005F0D9FC02B00F
:1012F00010BD13B5044601A9A83005F096FA28B927
:101300000246019904F1E00005F0CAFC02B010BDEC
:10131000D0F8C410783005F0A4BB10B500F1780403
:101320000421204605F09DFB28B920460321BDE895
:10133000104005F096BB10BD0321783005F091BB3D
:101340000021783005F08DBB10B500F1780405213F
:10135000204605F086FB002848D10C21204605F0E8
:1013600080FB002842D11821204605F07AFBE8BB1B
:101370002021204605F075FBC0BB40F2012120462C
:1013800005F06FFB90BB3521204605F06AFB68BB7A
:101390000E21204605F065FB40BB4FF4017120464D
:1013A00005F05FFB10BB40F20A21204605F059FB17
:1013B000E0B93021204605F054FBB8B93121204670
:1013C00005F04FFB90B94FF48061204605F049FBD2
:1013D00060B940F20441204605F043FB30B9204695
:1013E00040F20241BDE8104005F03BBB10BD10B516
:1013F000044605F037FE014604F17800BDE81040D0
:1014000005F06ABB0121806F05F0CFB80021806F25
:1014100005F0CBB8212070470421806F05F0C5B8D6
:101420000C20704713B504466946006823F0C0FCE1
:1014300008226946A06F05F0CAF802B010BD02216B
:10144000783005F0E0BB90F8F010806F05F0ADB893
:1014500073B504460E46A8300DF1070105F063F997
:10146000A0BB9DF80730042B07D8012202FA03F134
:1014700011F01B0F02D14B0703D4032384F8F03083
:1014800001E084F8F020002384F8F8300C220123D6
:1014900031462046FFF72BFB94F8F030042B05462D
:1014A00008D070B9201D04F0ECFEC4F8F40001234C
:1014B00084F8C03015B184F8F8600025284602B0E1
:1014C00070BD074B1B68C4F8F430F0E7FFF750F924
:1014D000314602462046FFF7F0FA0546EEE700BF28
:1014E00078D40300712A10B51C4616D003D80C2AF4
:1014F0000BD0002010BD41F210539A420AD0B2F531
:101500006F5FF6D1FFF7AEFC01E0FFF7A1FF20709F
:101510000120EFE700F032FEF9E703F0F7FBF6E712
:10152000F0B585B004460D460026014602A81746D0
:101530008DF8076004F04CFADDE9022303F00101A5
:1015400002B989B15B1084F83C63E01809B1E35833
:101550009A58904701228DF8070084F83C2388B1FF
:10156000FFF706F9024608E00DF107033A4629465F
:101570002046FFF7B7FF60B90D2229462046FFF746
:1015800098FA04E03B4629462046FFF73DFA8DF8DD
:1015900007009DF8070005B0F0BD73B500230446B1
:1015A0000D46A83001A91646019305F03EF9014603
:1015B00050B1FFF7DDF8294602462046FFF779FAD9
:1015C0000146084602B070BDB31E032BF9D8DFE810
:1015D00003F002090F0F019B002229462046FFF766
:1015E00013FAEDE7019A29462046FFF799FFE7E74E
:1015F0003346019A29462046FFF7B4FBE0E737B5AA
:1016000004460D46A83001A905F00FF970B9019AFA
:101610000B2A26D8DFE802F0060C1111111125253E
:1016200025161B2029462046FFF7F7FB03B030BDE7
:1016300029462046FFF7F6FBF8E729462046FFF744
:10164000ACFFF3E72946204600F0DAFEEEE7294634
:10165000204600F0D9FEE9E72946204600F0E4FEE6
:10166000E4E7052229462046FFF723FADEE773B5B3
:10167000012300F1A805044680F83C3300262846E3
:101680008DF8076005F044F8042384F8F03084F8FE
:10169000C0600DF10701284605F045F880B99DF8B6
:1016A00007100B060CD5D4F8643311F0300F03F19A
:1016B0000103C4F8643308D006222046FFF7FDF981
:1016C000002384F83C3302B070BD2046FFF797FF3B
:1016D00038B19DF80710FFF74BF802462046FFF798
:1016E000E8F994F8FB2294F8FA329A4202D02046A4
:1016F000FFF734FA9DF8073094F8F92203F00F034E
:1017000032B19A421EBFD4F868230132C4F868236C
:101710000F2B14BF0133012384F8F932D0E7000006
:10172000F8B50446E03005F080FA0A4D0746002679
:101730007834F3B2BB420BD22B7A13B90C35013695
:10174000F7E72968204605F08CF90028F6D0F8BDA7
:101750000020FCE77CD4030010B50446006823F0A9
:10176000DDFBC1B2A06FBDE8104004F01EBF10B594
:101770000446006823F0D0FDC1B2A06FBDE8104060
:1017800004F013BF13B504460DF10701006823F000
:1017900025FC30B99DF80710A06F04F006FF02B0D9
:1017A00010BDFEF7E5FF014604F1780005F02BFAC5
:1017B000F5E713B5002304460DF10701A8308DF8B5
:1017C000073004F0D2FF20B99DF90710206823F0FC
:1017D0000FFC02B010BDFEE7FEE710B5044605F0B1
:1017E00038FEFFF707F90146A06FBDE8104004F08E
:1017F000DCBE000007B500230DF10701A8308DF80D
:10180000073004F090FF38B99DF80730072B06D851
:10181000044AD05C05F01FFE03B05DF804FB07200E
:10182000FAE700BFC2D3030010B50446006805F014
:10183000DAFC01462046BDE81040FFF711BC10B5A8
:101840000446006810F014F901462046BDE8104037
:10185000FFF706BC1346074A10B40446106828B1C7
:101860000A4621465DF8044BFFF786B80D205DF867
:10187000044B7047380A00200822006804F0A7BE15
:10188000F8B50546087F0C46C0F3C003C0F340011D
:10189000C0F3800200F0010000F04CFD05F1780774
:1018A000064621463846FFF7E7FF40BB218A384607
:1018B00005F07BF818BBA168384605F085F8F0B94B
:1018C000E168384605F080F8C8B9217DA86F04F0BA
:1018D0006CFEA0B9617DA86F04F067FE78B9A17DA8
:1018E000A86F04F062FE50B93146A86F04F05DFEA7
:1018F00028B9E17DA86FBDE8F84004F056BEF8BDF8
:1019000070B505460C46002936D000F1780641F640
:101910000D1306228021304605F057F960BB2146A1
:101920003046FFF7A9FF38BB2189304605F03DF866
:1019300010BBA17AA86F04F038FEE8B9E17AA86F6D
:1019400004F033FEC0B9217BA86F04F02EFE98B9D5
:10195000617BA86F04F029FE70B9A17BA86F04F029
:1019600024FE48B9E17BA86F04F01FFE20B9304681
:10197000BDE8704005F00CB970BD0B46014618B1CA
:1019800013B11846FFF7BCBF7047F8B500F1E00689
:1019900004460D4630465221174605F0C9F948BBAA
:1019A0003B7FDB0626D4C5B1012D23D1082204F1EB
:1019B000780552238021284605F007F978B10123E4
:1019C000304684F83D330B22002105F031F904F153
:1019D000D400BDE8F84007F007B80722E7E739462A
:1019E0002046FFF74DFF0028E9D1284605F0D0F842
:1019F0000028E4D1F8BD38B50D460446FEF79CFF3B
:101A00002A462146BDE83840FFF7BFBF10B504465F
:101A1000006806F00CF80146A06FBDE8104004F025
:101A2000C4BD10B50446006805F016FF0146A06F5E
:101A3000BDE8104004F0B9BDF0B5044689B00646D3
:101A400054F8780B05F0DBFF00250746E9B28F421A
:101A50001AD96A46306806F03EF808B10135F5E754
:101A60009DF81C30DB06F9D4204605F04DF848B946
:101A700069463046FFF704FF20B9204605F063F8B9
:101A80000028EBD009B0F0BD0020FBE7F0B505461B
:101A900087B0044655F8780B06F03AF8002607465A
:101AA00001AAF1B2206806F035F828B10136F3B288
:101AB000BB42F5D9002044E09DF81430DB07F5D592
:101AC000284605F021F800283BD101A92846FFF758
:101AD000D3FEB0BBBDF80C10284604F066FF80BBF7
:101AE0009DF80E10A06F04F060FD50BB9DF80F1024
:101AF000A06F04F05AFD20BB9DF81010A06F04F0F9
:101B000054FDF0B99DF81110A06F04F04EFDC0B95E
:101B10009DF81210A06F04F048FD90B99DF81310C5
:101B2000A06F04F042FD60B99DF81410A06FC1F3DE
:101B3000400104F03AFD20B9284605F004F80028D9
:101B4000B4D007B0F0BD2DE9F04104468EB0064692
:101B5000002554F8780BADF8065005F050FF80468C
:101B6000EFB2B84534D906AA3946306805F0B3FF5C
:101B700008B10135F4E79DF83430DB06F9D420468E
:101B800004F0C2FFD8B906A92046FFF775FEB0B928
:101B9000BDF82810204604F008FF80B9ADF8060013
:101BA00002AB0DF106023946306805F09CFF48B9DA
:101BB000102202A9B06F04F00AFD0028F0D00EB088
:101BC000BDE8F081204604F0BEFF0028D1D0F6E742
:101BD0000020F4E710B50446006805F019FF01463F
:101BE000A06FBDE8104004F0E0BC37B505460DF12C
:101BF0000701A83004F0A7FD044620B99DF807109E
:101C0000286805F00AFF204603B030BD10B5044631
:101C1000006805F08FFF10220146A06FBDE810405C
:101C200004F0D5BC13B5002304460DF1020201A94E
:101C3000A830019304F04EFE38B9BDF80230102BE5
:101C400005D10199206805F07AFF02B010BD062089
:101C5000FBE710B50446006805F0D1FE0146A06F11
:101C6000BDE8104004F0A1BC13B5002304460DF1FB
:101C70000701A8308DF8073004F055FD20B99DF814
:101C80000710206805F0BFFE02B010BD10B5044675
:101C9000006805F0E6FE0146A06FBDE8104004F0C4
:101CA00084BC37B5002305460DF10701A8308DF837
:101CB000073004F038FD044620B99DF80710286865
:101CC00005F0D3FE204603B030BD10B504460068D1
:101CD00005F0F0FE0146A06FBDE8104004F065BCC1
:101CE00037B5002305460DF10701A8308DF8073000
:101CF00004F019FD044620B99DF80710286805F086
:101D0000DDFE204603B030BD10B50446006805F086
:101D1000D9FE0146A06FBDE8104004F046BC37B5BF
:101D2000002305460DF10701A8308DF8073004F0B7
:101D3000FAFC044620B99DF80710286805F0C6FE95
:101D4000204603B030BD10B5044654F8780B05F0BA
:101D500076FE01462046BDE8104004F035BE37B59A
:101D60000023054601A9A830019304F01EFD044696
:101D700018B90199286805F067FE204603B030BD08
:101D800010B50446006805F064FE0146A06FBDE88A
:101D9000104004F00ABC37B5002305460DF10701D9
:101DA000A8308DF8073004F0BEFC044620B99DF839
:101DB0000710286805F051FE204603B030BD10B56D
:101DC0000446006805F0E4F8012808D002280CBF9A
:101DD00002210021A06FBDE8104004F0E6BB0146DF
:101DE000F8E713B504460DF10701A83004F09BFC99
:101DF00028B99DF8073023B1022B06D0072002B086
:101E000010BD206805F078F8F9E7206805F064F85F
:101E1000F5E730B500F1A80485B00546204604F08A
:101E200079FD58B9B5F8AE20B5F8B0309A4207D070
:101E3000082201A9204604F00FFD10B105B030BD05
:101E40000190204604F086FD0028F7D102A9204623
:101E500004F0ABFC0028F1D103A9204604F01DFDDD
:101E60000028EBD1DDE902320199286805F054F829
:101E7000E4E737B500F1A8050446284604F04AFD1A
:101E800058B9B4F8AE20B4F8B0309A4207D008225E
:101E900001A9284604F0E0FC10B103B030BD019068
:101EA000284604F057FD0028F7D10199206805F075
:101EB00038F8F2E713B500230DF106010446006877
:101EC000ADF8063005F038F8014628B90021A06FBA
:101ED00004F06BFB02B010BDBDF80620002AF5D05F
:101EE000A06F04F074FB0028F0D0F3E713B50446AC
:101EF00001A9A83004F0D1FC18B90199206805F0B7
:101F000016F802B010BD10B5044654F8780B05F071
:101F10003AF801462046BDE8104004F046BD30B511
:101F200000F1A80487B0054604A9204604F03DFC52
:101F3000D8B90DF10D01204604F0F5FBA8B90DF15B
:101F40000E01204604F01DFC78B9102205A9204698
:101F500004F082FC48B9059B00939DF80D20BDF864
:101F60000E300499286804F0EFFF07B030BD000080
:101F700030B500F1A80489B0054606A9204604F052
:101F800014FC30BB0DF11301204604F0CCFB00BB68
:101F900005A9204604F0F5FBD8B90DF1160120463D
:101FA00004F0EFFBA8B9102207A9204604F054FC66
:101FB00078B9094B0293079B0193BDF81630009343
:101FC0000395BDF814309DF813200699286804F095
:101FD000C0FF09B030BD00BF3D2000002DE9F04139
:101FE00000F178040546884616461F46072241F64A
:101FF00002038021204604F0E8FD58B105F1E0001D
:102000000B22002104F014FE05F1D400BDE8F041DC
:1020100006F0EABC4146204604F0D6FC0028EDD18B
:102020003A463146204604F047FD0028E6D12046D6
:1020300004F0AEFD0028E1D1BDE8F08110B41C46EB
:1020400013460A46014620465DF8044BFFF7C6BF1B
:1020500030B500F1A80587B004460DF10E01284601
:1020600004F08FFBA0B904A9284604F09EFB78B9C0
:10207000102205A9284604F0EFFB48B9054B009350
:102080000194DDE90423BDF80E10206804F06CFF14
:1020900007B030BDF1200000F8B500F17804054626
:1020A0000F46164641F6040307228021204604F01D
:1020B0008CFD58B105F1E0000B22002104F0B8FDC1
:1020C00005F1D400BDE8F84006F08EBC3946204644
:1020D00004F06BFC0028EDD13146204604F074FC7E
:1020E0000028E7D1204604F053FD0028E2D1F8BDD6
:1020F00013460A4601461846FFF7CEBF13B50446FD
:102100000DF1020201A9A83004F0EFFB40B9BDF8BF
:102110000220FF2A06D8D2B20199206804F029FFD4
:1021200002B010BD0720FBE730B58BB004460DF1BF
:10213000060202A9A83004F0D8FB70B9BDF8065019
:10214000FF2D0CD801461A2203A839F0A9FCEBB2E6
:10215000029A206803A904F011FF0BB030BD0720DC
:10216000FBE710B50446006804F012FF831E5942D5
:10217000A06F5941BDE8104004F017BA37B50023ED
:1021800004460D46A8300DF107018DF8073004F024
:10219000DAFA28B99DF8073020685BB904F0ACFE84
:1021A000FEF7E6FA0222034629462046FEF72CFCFB
:1021B00003B030BD04F090FEF2E77FB500F1A80552
:1021C0000023064602A92846CDE90133039304F013
:1021D00064FB90B903A9284604F0E7FA044660B905
:1021E000082201A9284604F037FB00B10194DDE97B
:1021F00002230199306804F08FFE04B070BD37B53A
:1022000005460DF10701A83004F08DFA044620B907
:102210009DF80710286805F00EFC204603B030BD7D
:1022200090F83E13806F04F0C0B910B500F23E3153
:102230000446A83004F077FA30B994F83E132068C9
:10224000BDE8104005F0EEBB10BD37B504460DF1FA
:102250000701A83004F067FA054638B99DF8071061
:10226000206805F006FC0D2808BF284603B030BDE5
:1022700070B5044686B0002600F1780501AAF1B2D7
:10228000206805F04FFC10BB9DF81730DB0701D428
:102290000136F3E7284604F037FCB0B9102201A953
:1022A000A06F04F094F980B9BDF81410284604F02A
:1022B0007CFB50B99DF81610A06F04F076F920B998
:1022C000284604F040FC0028E2D006B070BD002093
:1022D000FBE7437C13F0040F14BF202000201907F4
:1022E00048BF40F01000DA0648BF40F00800590629
:1022F00048BF40F002009A0648BF40F00400DA09E7
:1023000043F3010318BF40F00100DBB240EA831041
:10231000C0B2704704F049B9002204F089BC102211
:1023200004F09ABAC9B2006804F03FB910220068FC
:1023300004F04DB900280CBF0020082009B140F07E
:1023400004000AB140F002000BB140F001007047F8
:1023500010B5044654F8780B04F092FF014620466D
:10236000BDE8104004F030BB13B5044601A9A83005
:1023700004F01BFA18B90199206804F085FF02B037
:1023800010BD10B5044654F8780B04F041FF014627
:102390002046FFF771FA10BD10B50446006804F03E
:1023A000F3FEB0B10A280CD84FF4FA61414301F5AD
:1023B0005C2101F5346104F17800BDE8104004F0BF
:1023C00003BB192807D8054941F2883303FB0011E4
:1023D000F1E70349EFE70021EDE700BFB0DB2300A1
:1023E000CC3F0D0013B5002301A904460193FEF76D
:1023F0004CFE18B90199206804F0F9FE02B010BD36
:1024000002231A46FEF700BB70B5044600680D466D
:1024100004F025FEFEF7ACF92946034602222046C9
:10242000BDE87040FEF7F0BAFFF7EABF10B504460A
:10243000006804F0BAFD0146A06FBDE81040FFF748
:1024400069BF10B50446006804F024FE0146A06F81
:10245000BDE81040FFF75EBF13B5002304460DF141
:102460000701A8308DF8073004F06DF920B99DF808
:102470000710206804F0FAFD02B010BD10B5044644
:10248000006805F0DDF9011C18BF0121A06FBDE84F
:102490001040FFF73FBF73B5002305460DF107015C
:1024A000A8308DF8073004F04EF9044688B9286842
:1024B0009DF8076005F0C4F9003018BF0120B04254
:1024C00007D09DF80730286833B1012105F03BFAA9
:1024D0000446204602B070BD2146F7E710B5044619
:1024E000006805F0ADF90238C0B2022896BF044B6F
:1024F0000021195CA06FBDE8104004F056B800BF81
:10250000CDD3030013B50023044601A9A8300193DD
:1025100004F08BF948B9019B032B06D8DFE803F0E0
:10252000020F070B206805F077F902B010BD206894
:1025300005F0A8FAF9E7206805F0B7FAF5E7206892
:1025400005F06FF9F1E710B5044654F8780B05F083
:1025500034F901462046BDE8104004F0BDBA37B555
:102560000546002401A9A830019404F096F928B981
:102570000199286805F025F903B030BD2046FBE736
:1025800010B50446006805F05AF808220146A06F0D
:10259000BDE8104004F01BB813B5002304460DF14C
:1025A000020201A9A830019304F094F938B9BDF8EA
:1025B0000230082B05D10199206805F044F802B0DB
:1025C00010BD0620FBE710B50446006805F0AEF824
:1025D00010220146A06FBDE8104003F0F8BF13B50C
:1025E000002304460DF1020201A9A830019304F072
:1025F00071F938B9BDF80230102B05D10199206866
:1026000005F099F802B010BD0620FBE710B50446AE
:1026100054F8780B05F0EFF801462046BDE810406D
:1026200004F0D2B937B5054601A9A83004F0BDF8C9
:10263000044618B90199286805F0E1F8204603B06E
:1026400030BD10B5044654F8780B05F00DF901467D
:102650002046BDE8104004F0B7B910B5044654F860
:10266000780B05F0D1F801462046BDE8104004F093
:10267000ABB937B5054601A9A83004F096F8044671
:1026800018B90199286805F0C3F8204603B030BD99
:1026900010B50446006804F0ADFF0146A06FBDE828
:1026A000104003F082BF10B50446006804F0AAFF92
:1026B0000146A06FBDE8104003F077BF10B5C2B06F
:1026C0000446FF238DF8073002AA0DF1070300210D
:1026D000006804F095FB9DF80720A06F02A903F0A5
:1026E00076FF42B010BD10B5C2B00446FF238DF88E
:1026F000073002AA0DF107030121006804F080FBF6
:102700009DF80720A06F02A903F061FF42B010BD41
:1027100010B5C2B00446FF238DF8073002AA0DF1B0
:1027200007030021006804F045FF9DF80720A06F13
:1027300002A903F04CFF42B010BD10B5C2B0044670
:10274000FF238DF8073002AA0DF10703012100686D
:1027500004F030FF9DF80720A06F02A903F037FFB7
:1027600042B010BD10B50446006805F06DF8014692
:10277000A06FBDE8104003F018BF1FB504466946BE
:1027800054F8780B04F08BFF28B969462046FFF710
:10279000CDFD04B010BDFDF7EBFF0146204604F06F
:1027A00032FAF6E730B5044687B0054601A954F879
:1027B000780B05F068F800283CD19DF814309B0791
:1027C00033D50DF10201286805F098F80DF10301E9
:1027D000286805F0A6F801A92046FFF74DF810BBC0
:1027E000BDF80C10204604F0E0F8E0B99DF8131095
:1027F000204604F0E9F8B0B99DF902102046FFF731
:1028000091FD80B99DF903102046FFF78BFD50B96B
:102810009DF81110A86F03F0C8FE20B99DF81210A2
:10282000A86F03F0C2FE07B030BD1421204604F0AB
:10283000EAF9F8E7FDF79CFF0146F7E770B58AB0C3
:1028400000230546ADF8023000F1780401AA0DF12D
:102850000201286804F0EBFF002852D19DF8240003
:10286000C0F3C003C0F38002C0F3400100F00100D8
:10287000FFF760FD0646204604F046F900283ED1E9
:1028800001A92046FEF7F8FF002838D1BDF8101046
:10289000204604F08AF890BB0399204604F094F88F
:1028A00068BB9DF81C10A86F03F07FFE38BB9DF934
:1028B0001D102046FFF736FD08BB3146A86F03F018
:1028C00074FEE0B99DF82410A86FC1F30011FFF762
:1028D00021FDA0B90599204604F076F878B906994B
:1028E000204604F071F850B99DF91E102046FFF7FC
:1028F00019FD20B9204604F026F90028A6D00AB018
:1029000070BD0020FBE730B58BB000230546ADF865
:10291000023000F1780401AA0DF10201286804F0E8
:1029200086FF68BB204604F0EFF838BB01A92046BB
:10293000FEF7A2FF10BBBDF81010204604F035F8DA
:10294000E0B9BDF82010204604F02FF8B0B9BDF86A
:102950002210204604F029F880B99DF91D10204668
:10296000FFF7E0FC50B99DF91E102046FFF7DAFC96
:1029700020B9204604F0E7F80028CCD00BB030BDD9
:102980000020FBE737B5044600230DF1070154F89A
:10299000780B8DF8073004F0D3FB851E9DF80700F7
:1029A00058B135F8021F204603F0FFFF28B99DF803
:1029B0000730013B8DF80730F0E703B030BD73B549
:1029C0000646044656F8A80B04F0B5FBB4F8B03040
:1029D000B4F8AE209B1A9BB2012B16D90DF106015B
:1029E000304603F0CEFE80B9BDF80610206804F032
:1029F00098FB05460028E9D001235C22802120466F
:102A0000FEF775F8284602B070BD0025FAE790F889
:102A10003813806FFFF77EBC37B5002304460DF1F5
:102A20000701A8308DF8073003F08DFE054630B958
:102A300094F838239DF8073022B984F838332846B3
:102A400003B030BD002BFAD184F83803206804F0BD
:102A50003EFAF4E730B589B000230446019300F153
:102A6000780502AA01A9206804F0B2FD80BB2846BF
:102A700004F04AF850BB02A92846FFF757FC28BBD0
:102A80009DF81810A06F03F090FDF8B99DF81A108A
:102A9000A06F01F00101FFF73DFCB8B902A8FFF7F4
:102AA00018FC0146A06F03F080FD78B90146A06FC5
:102AB00003F07BFD50B9BDF81C10284603F075FFEC
:102AC00020B9284604F03FF80028CAD009B030BD2C
:102AD0000023019304F1780502AA01A9206804F0FB
:102AE000CEF9002836D1284604F00EF80028EDD1A2
:102AF00002A92846FFF71AFC0028E7D19DF8181014
:102B0000A06F03F052FD0028E0D19DF81A10A06FCD
:102B100001F00101FFF7FEFB0028D7D102A8FFF763
:102B2000D8FB0146A06F03F040FD0028CED1012163
:102B3000A06F03F03AFD0028C8D1BDF81C1028464C
:102B400003F033FF0028C1D1284603F0FCFF002822
:102B5000C2D0BBE70020B9E730B5044689B00021F8
:102B6000182202A88DF805108DF8061038F098FF8D
:102B700094F83833002B4AD004F1A80502A928465E
:102B800003F078FE002840D10DF10701284603F03C
:102B9000CAFDD0BB0DF10501284603F0D4FDA0BB52
:102BA0000DF10601284603F0BEFD70BB9DF807300D
:102BB0009DF805208DF818309DF81A30206862F3D2
:102BC00000039DF806208DF81A309DF81930910900
:102BD00061F30103C2F3401161F38203C2F30011F8
:102BE00061F3C303C2F3C00161F30413C2F38001B4
:102BF00061F34513C2F3400161F3861362F3C71317
:102C000002A98DF8193004F009F909B030BD0D2082
:102C1000FBE730B5044687B01122002101A838F047
:102C20003FFF94F83833D3B104F1A80501A9284631
:102C300003F020FE88B928460DF1030103F073FD6F
:102C4000054650B99DF8033020688DF8143001A96D
:102C500004F00FF9172808BF284607B030BD0D2033
:102C6000FBE790F8CE10806FFFF754BB00F1CE0168
:102C7000A83003F068BD90F8CF10806FFFF74ABB13
:102C800000F1CF01A83003F05EBDB0F8D01078306D
:102C900003F08BBE00F1D001A83003F072BD7FB508
:102CA00091F86430DB0705460C4600F14F8194F83B
:102CB00064309E071DD505F17806304603F024FFE9
:102CC000002840F0498141F21D51304603F0C9FE11
:102CD000002840F04181D4E90223304603F08FFE02
:102CE000002840F03981304603F02DFF002840F0E5
:102CF000338194F8643058071CD505F178063046C6
:102D000003F002FF002840F027814621304603F0FF
:102D1000A8FE002840F020811022A118A86F03F01F
:102D200056FC002840F01881304603F00CFF0028C4
:102D300040F0128194F8643019071CD505F178062B
:102D4000304603F0E1FE002840F006814421304681
:102D500003F087FE002840F0FF8004F12001304698
:102D600003F0BAFE002840F0F780304603F0EBFE97
:102D7000002840F0F18094F86430DA061DD505F1A2
:102D80007806304603F0C0FE002840F0E58045217B
:102D9000304603F066FE002840F0DE80082204F191
:102DA0003101A86F03F013FC002840F0D5803046B5
:102DB00003F0C9FE002840F0CF8094F864309B06F1
:102DC0002BD522466B4652F8390F516805F178062B
:102DD00003C300233046CDE9023303F095FE0028FB
:102DE00040F0BA806221304603F03BFE002840F0FC
:102DF000B38069463046FFF799FA002840F0AD806D
:102E00004021A86F03F0D1FB002840F0A680304697
:102E100003F099FE002840F09F8094F864305E062D
:102E200000F1B28094F86430DB091AD005F178061D
:102E3000304603F069FE002840F08E80362130468F
:102E400003F00FFE002840F08780B4F848103046A9
:102E500003F0ABFD00287FD1304603F074FE00285C
:102E60007AD194F86530D80718D505F17806304640
:102E700003F04AFE00286FD12121304603F0F1FD16
:102E8000002869D194F84A10A86F03F08EFB00283F
:102E900062D1304603F057FE00285DD194F86530CA
:102EA000990719D505F17806304603F02DFE002864
:102EB00052D14B21304603F0D4FD00284CD11022D2
:102EC00004F14C01A86F03F082FB002844D1304686
:102ED00003F039FE00283FD194F865305A071BD51E
:102EE00005F17806304603F00FFEA8BB41F21F51F2
:102EF000304603F0B6FD78BBB4F85C10304603F002
:102F000054FD48BB94F85E10A86F03F04EFB18BB4D
:102F1000304603F018FEF8B994F865301B071BD54E
:102F200005F17806304603F0EFFDA8B922213046BE
:102F300003F097FD80B9216E2846FEF791F804460C
:102F400050B9304603F0FFFD204606E000F1780658
:102F5000304603F0D9FD10B1002004B070BD41F23D
:102F60001C51304603F07DFD0028F5D1D4E9002343
:102F7000304603F044FD0028EED1304603F0E3FD77
:102F800000283FF494AEE7E705F17806304603F0F9
:102F9000BBFD0028E0D141F21E51304603F061FD37
:102FA0000028D9D1616C304603F00EFD0028D3D142
:102FB000304603F0C8FD00283FF434AFCCE710B52D
:102FC0009AB004466946006803F0E7FF6946204668
:102FD000FFF765FE1AB010BD10B59AB004466946F9
:102FE000006804F003F869462046FFF758FE1AB05F
:102FF00010BD2DE9F04F0C4687B09046054668227B
:10300000002120469946DDF840A09DF8447038F034
:1030100047FDB8F1000F02D00023C8F80030B9F125
:10302000000F02D0002389F80030BAF1000F02D05F
:103030000023CAF8003005F1A8064FF0010BB5F8DF
:10304000B020B5F8AE309A4200F0D181304603F09E
:1030500061FC002840F0A78004A9304603F0E5FB9E
:10306000002840F0A080049B4B2B00F0388137D81B
:10307000362B00F007810BD8212B00F01781222B73
:1030800000F06D81304603F065FC0028D7D08AE05F
:10309000452B00F0C380462B00F09C80442BF1D1DF
:1030A0002FB1B5F8B020B5F8AE309A4213D005A9CB
:1030B000304603F0F2FB002875D1059901910846CE
:1030C00039F04AF9102800F29081421C019904F16C
:1030D000200038F0BDFC94F8643043F0080359E058
:1030E00041F21E52934200F0B9802BD841F21C529B
:1030F000934244D05AD8622BC4D12FB1B5F8AE2038
:10310000B5F8B0309A4218D005A93046FFF707F954
:10311000002848D10DF10E01304603F004FB0028D1
:1031200041D19DF80E30402B40F05F81059A136825
:10313000C4F839305368C4F83D3094F8643043F033
:10314000200327E0B3F5A95F00F02D81C0F0EB80EC
:1031500041F22752934295D12FB1B5F8AE20B5F880
:10316000B0309A428ED005A93046FFF7D8F8D0B9D2
:10317000BAF1000F86D0059BCAF8003082E767B12C
:10318000B5F8B020B5F8AE309A4206D194F8643064
:1031900043F0010384F8643074E72146304603F0BD
:1031A0001CFB0028F2D007B0BDE8F08F57B1B5F88E
:1031B000B020B5F8AE309A4204D194F8643043F0B0
:1031C0000203E7E704F10801304603F006FB00289C
:1031D000F3D0E8E72FB1B5F8B020B5F8AE309A4299
:1031E00017D00DF10E0205A9304603F073FB00283D
:1031F000D9D1BDF80E30102B40F0F780059B04F1BB
:10320000100203F1100153F8040B42F8040B8B4237
:10321000F9D194F8643043F00403BBE72FB1B5F85B
:10322000AE20B5F8B0309A4213D00DF10E0205A9C8
:10323000304603F04FFB0028B5D1BDF80E30082B07
:1032400040F0D380059A1368C4F831305368C4F84D
:10325000353094F8643043F010039BE757B1B5F86C
:10326000AE20B5F8B0309A4204D194F8643043F0FF
:1032700040038FE704F14401304603F096FA00283A
:10328000F3D090E757B1B5F8AE20B5F8B0309A4218
:1032900004D194F8643043F080037BE704F14801E3
:1032A000304603F06EFA0028F3D07CE72FB1B5F872
:1032B000AE20B5F8B0309A420AD005A9304603F0E6
:1032C00032FA00287FF46FAF9DF81430A4F84A302A
:1032D00094F8653043F0010384F86530D2E62FB1ED
:1032E000B5F8AE20B5F8B0309A4217D00DF10E0205
:1032F00005A9304603F0EEFA00287FF454AFBDF87C
:103300000E30102B71D1059B04F14C0203F110011A
:1033100053F8040B42F8040B8B42F9D194F8653052
:1033200043F00203D8E757B1B5F8AE20B5F8B03096
:103330009A4204D194F8653043F00403CCE704F1D9
:103340005C01304603F01DFA00287FF42CAF04F135
:103350005E01304603F0E7F90028EBD023E72FB1F8
:10336000B5F8AE20B5F8B0309A4217D000232366E6
:10337000B5F8AE20B5F8B0309A420FD005A9304666
:1033800003F0D1F900287FF40EAF9DF814301F2B05
:103390002BD8226E0BFA03F31343E8E794F8653059
:1033A00043F0080398E737B1B5F8AE20B5F8B03070
:1033B0009A423FF467AE0DF10E0205A9304603F0C4
:1033C00089FA00287FF4EFAEBDF80E30FF2B0CD841
:1033D000B8F1000F02D0059AC8F80020B9F1000F2B
:1033E0003FF450AE89F800304CE60720DBE60020C1
:1033F000D9E610B500239CB0CDE900331A4602A9E6
:103400000446FFF7F6FD18B902A9206803F0E6FDAF
:103410001CB010BD10B500239CB0CDE900331A4696
:1034200002A90446FFF7E5FD18B902A9206803F0D8
:10343000E5FD1CB010BD10B500239EB0CDE90033F2
:1034400003AA0DF10B0304A90446FFF7D2FD30B91E
:103450009DF80B30039A206804A903F0DCFD1EB030
:1034600010BD10B500239EB0CDE9003303AA0DF1C5
:103470000B0304A90446FFF7BCFD30B99DF80B30DF
:10348000039A206804A903F0D0FD1EB010BD10B54A
:10349000A0B00123019305AB009304AA0DF10F0323
:1034A00006A90446FFF7A5FD40B9059B0093049AC1
:1034B0009DF80F3020681FA903F0A8FD20B010BDB3
:1034C00010B5A0B00123019305AB009304AA0DF140
:1034D0000F0306A90446FFF78CFD40B9059B009336
:1034E000049A9DF80F3020681FA903F099FD20B0C1
:1034F00010BD1FB50446006804F03EF9034680B1D4
:10350000596800686A4603C20023694604F17800DE
:10351000CDE90233FEF70AFF18B94021A06F03F08E
:1035200044F804B010BD37B500F1A805044601A960
:103530002846FEF7F4FE68B90DF10301284603F0B2
:10354000F2F838B99DF80330402B05D10199206875
:1035500004F016F903B030BD0720FBE710B50446B0
:10356000006804F005F920B1014604F17800FEF787
:10357000DDFE10BD10B50446006804F01AF920B154
:10358000014604F17800FEF7D1FE10BD70B5054686
:10359000064655F8780B03F081FD04460CB3284627
:1035A00003F0B2FAF0B921462846FEF7BFFEC8B9CB
:1035B000217CB06F02F0F9FFA0B9617C284641F38D
:1035C000000103F001FA68B9617C284641F340012B
:1035D00003F0FAF930B9284603F0B5FA10B9646976
:1035E000DCE7204670BD30B500F1A80489B005467F
:1035F00002A9204603F03EF910BB06A9204603F0BD
:1036000092F8E8B96946204603F0CFF8C0B901A99D
:10361000204603F0CAF898B9009B28681A1C9DF848
:10362000193018BF012262F30003019A003218BF5B
:10363000012262F3410302A98DF8193003F032FD33
:1036400009B030BD37B5044601A9A830FEF767FEC2
:10365000054630B90199206803F029FD172808BFF5
:10366000284603B030BD0221783003F0CCBA10B543
:103670000446006803F0DEFC011C18BF0121A06FA6
:10368000BDE81040FEF746BE37B5002305460DF1F4
:103690000701A8308DF8073003F055F8044640B90B
:1036A0009DF807302868002B14BF0321002103F088
:1036B000C5FC204603B030BD38B5054655F8780B3B
:1036C00003F0FAFC044674B1284603F01DFA58B919
:1036D00021462846FEF72AFE30B9284603F033FA81
:1036E00010B92469EFE7204638BD37B5044601A973
:1036F000A830FEF714FE054630B90199206803F0A2
:10370000DFFC182808BF284603B030BD37B5044693
:1037100001A9A830FEF703FE054630B901992068DB
:1037200003F0D3FC172808BF284603B030BD0000C3
:1037300010B50446006803F07DFC0138C0B20228D1
:1037400096BF044B0021195CA06FBDE8104002F049
:103750002CBF00BFD0D3030037B505460DF10701DC
:10376000A83002F0E0FF044658B99DF80730013B4D
:10377000DBB2022B96BF044A0146D15C286803F0F5
:103780005DFC204603B030BDD3D3030010B5044622
:10379000006803F0A4FC80F00101C9B2A06FBDE88D
:1037A0001040FEF7B7BD37B5002305460DF1070100
:1037B000A8308DF8073002F0C6FF044630B99DF8F6
:1037C0000710286881F0010103F08DFC204603B04A
:1037D00030BD000070B588B00023504E0193044600
:1037E00002AA01A9206803F0FCFE002841D104F1DF
:1037F0007805284603F088F9002838D102A9284620
:10380000FEF794FD98BB9DF81810A06F02F0CDFE56
:1038100068BB9DF81C10A06FC1F38001FEF77AFD14
:1038200028BB9DF81C3043F301035BB20133022B2C
:103830008CBF0146F15CA06F02F0B7FEB8B901463B
:10384000A06F02F0B2FE90B99DF81C10A06FC1F3FA
:10385000C001FEF75FFD50B9BDF81A10284603F00D
:10386000A4F820B9284603F06EF90028B8D008B0B3
:1038700070BD0023294E019304F1780502AA01A925
:10388000206803F01BFB002845D1284603F03CF9D3
:103890000028ECD102A92846FEF748FD0028E6D111
:1038A0009DF81810A06F02F080FE0028DFD19DF86F
:1038B0001C10A06FC1F38001FEF72CFD0028D6D1AB
:1038C0009DF81C3043F301035BB20133022B8CBF24
:1038D0000146F15CA06F02F068FE0028C7D101210B
:1038E000A06F02F062FE0028C1D19DF81C10A06FED
:1038F000C1F3C001FEF70EFD0028B8D1BDF81A10C3
:10390000284603F052F80028B1D1284603F01BF9ED
:103910000028B3D0ABE70020A9E700BFCAD303005B
:1039200030B5054689B00021182202A88DF805108F
:103930008DF8061038F0B4F895F83833002B3DD0E8
:1039400005F1A80402A9204602F094FF90BB0DF1F6
:103950000701204602F0E7FE60BB0DF1050120469D
:1039600002F0F1FE30BB0DF10601204602F0DBFE55
:1039700000BB9DF807308DF818309DF805209DF8A4
:103980001C3062F382038DF81C309DF8063003F082
:10399000C003402B10D0C02B0CBF4FF0FF320022D1
:1039A0009DF81C30286862F3010302A98DF81C30D1
:1039B00003F06EFA09B030BD0122F1E70D20F9E7FE
:1039C00030B5044687B01122002101A838F068F80C
:1039D00094F83833D3B104F1A80501A9284602F0C0
:1039E00049FF88B928460DF1030102F09CFE054607
:1039F00050B99DF8033020688DF8143001A903F008
:103A000057FA172808BF284607B030BD0D20FBE73E
:103A100030B500F1A80585B00023044601AA02A92B
:103A200028460293ADF804300393ADF8063002F057
:103A30005CFFD8B90DF1060203A9284602F04AFF3F
:103A4000A0B903460299BDF80420206803F064FB86
:103A5000014650B1206803F04AFB38B9D4F8483326
:103A60000133C4F8483305B030BD0320D4F85C33CB
:103A70000133C4F85C33F6E710B5044654F8780B0C
:103A800003F055FC01462046BDE8104002F08DBF12
:103A900010B5044654F8780B03F011FC0168204679
:103AA000BDE8104002F090BF10B5044654F8780B02
:103AB00003F005FCC1682046BDE8104002F084BF59
:103AC00010B5044654F8780B03F0F9FB0169204661
:103AD000BDE8104002F078BF10B5044654F8780BEA
:103AE00003F0EDFB41692046BDE8104002F06CBFD9
:103AF00010B5044654F8780B03F0E1FB81692046C9
:103B0000BDE8104002F060BF10B5044654F8780BD1
:103B100003F0D5FBC1692046BDE8104002F054BF58
:103B200010B5044654F8780B03F0C9FB016A20462F
:103B3000BDE8104002F048BF10B5044654F8780BB9
:103B400003F0BDFB416A2046BDE8104002F03CBFD7
:103B500010B5044654F8780B03F0B1FB816A204697
:103B6000BDE8104002F030BF10B5044654F8780BA1
:103B700003F0A5FBC16A2046BDE8104002F024BF57
:103B800010B5044654F8780B03F099FB016B2046FE
:103B9000BDE8104002F018BF10B5044654F8780B89
:103BA00003F08DFB41682046BDE8104002F00CBFD9
:103BB00010B5044654F8780B03F081FB8168204669
:103BC000BDE8104002F000BF10B5044654F8780B71
:103BD00003F075FB416B2046BDE8104002F0F4BED7
:103BE00010B5044654F8780B03F069FBC16B20460E
:103BF000BDE8104002F0E8BE10B5044654F8780B5A
:103C000003F05DFB816C2046BDE8104002F0DCBE95
:103C100010B5044654F8780B03F051FBC16C2046F4
:103C2000BDE8104002F0D0BE10B5044654F8780B41
:103C300003F045FB016D2046BDE8104002F0C4BE14
:103C400010B5044654F8780B03F039FB416D20465B
:103C5000BDE8104002F0B8BE10B5044654F8780B29
:103C600003F02DFB816D2046BDE8104002F0ACBE94
:103C700010B5044654F8780B03F021FBC16D2046C3
:103C8000BDE8104002F0A0BE10B5044654F8780B11
:103C900003F015FB016E2046BDE8104002F094BE13
:103CA00010B5044654F8780B03F009FB416E20462A
:103CB000BDE8104002F088BE10B5044654F8780BF9
:103CC00003F0FDFA016C2046BDE8104002F07CBE16
:103CD00010B5044654F8780B03F0F1FA416C204615
:103CE000BDE8104002F070BE10B5044654F8780BE1
:103CF00003F0E5FA816E2046BDE8104002F064BE94
:103D000010B5044654F8780B03F0D9FAC16E20467A
:103D1000BDE8104002F058BE10B5044654F8780BC8
:103D200003F0CDFA016F2046BDE8104002F04CBE12
:103D300010B5044654F8780B03F0C1FA416F2046E1
:103D4000BDE8104002F040BE10B5044654F8780BB0
:103D500003F0B5FA816F2046BDE8104002F034BE92
:103D600010B5044654F8780B03F0A9FAC16F204649
:103D7000BDE8104002F028BED0F84813783002F0B9
:103D800023BED0F84C13783002F01EBED0F85C137E
:103D9000783002F019BED0F85013783002F014BE1B
:103DA000D0F85413783002F00FBED0F858137830A2
:103DB00002F00ABED0F86C13783002F005BED0F8DD
:103DC0006413783002F000BED0F86013783002F04F
:103DD000FBBD10B5044654F8780B03F000FE0168F3
:103DE0002046BDE8104002F0EFBD10B5044654F87F
:103DF000780B03F0F4FD41682046BDE8104002F066
:103E0000E3BD10B5044654F8780B03F0E8FD816873
:103E10002046BDE8104002F0D7BD10B5044654F866
:103E2000780B03F0DCFDC1682046BDE8104002F0CD
:103E3000CBBD10B504468AB054F8780B694603F040
:103E400040FBBDF80010204602F0AFFD00285CD119
:103E5000BDF80210204602F0A8FD002855D1BDF89B
:103E60000410204602F0A1FD00284ED1BDF8061036
:103E7000204602F09AFD002847D1BDF808102046E0
:103E800002F093FD002840D1BDF80A10204602F050
:103E90008CFDD0BBBDF80C10204602F086FDA0BB07
:103EA000BDF80E10204602F080FD70BBBDF810106A
:103EB000204602F07AFD40BBBDF81210204602F009
:103EC00074FD10BBBDF81410204602F06EFDE0B981
:103ED000BDF81610204602F068FDB0B9BDF8181004
:103EE000204602F062FD80B9BDF81A10204602F0AB
:103EF0005CFD50B9BDF81C10204602F056FD20B9FB
:103F0000BDF81E10204602F050FD00200AB010BD82
:103F100038B5044654F8780B03F0D1F9054628B9B2
:103F200020461521BDE8384002F06DBE204602F063
:103F3000EBFD002840F0D0802968204602F044FDC7
:103F4000002840F0C9806968204602F03DFD002845
:103F500040F0C280A968204602F036FD002840F0FB
:103F6000BB80E968204602F02FFD002840F0B480B5
:103F70002969204602F028FD002840F0AD806969DB
:103F8000204602F021FD002840F0A680A9692046C5
:103F900002F01AFD002840F09F80E969204602F0F7
:103FA00013FD002840F09880296A204602F00CFD9D
:103FB000002840F09180696A204602F005FD002843
:103FC00040F08A80A96A204602F0FEFC002840F0FA
:103FD0008380E96A204602F0F7FC00287CD1296B37
:103FE000204602F0F1FC002876D1696B204602F0F1
:103FF000EBFC002870D1A96B204602F0E5FC0028FC
:104000006AD1204602F09FFD002865D1204602F0CB
:104010007BFD002860D1E96B204602F0D5FC00282A
:104020005AD1296C204602F0CFFC002854D1696C8B
:10403000204602F0C9FC00284ED1A96C204602F0AF
:10404000C3FC002848D1E96C204602F0BDFC0028E2
:1040500042D1296D204602F0B7FC00283CD1696DA1
:10406000204602F0B1FC002836D1A96D204602F0AE
:10407000ABFC88BBE96D204602F0A6FC60BB296E54
:10408000204602F0A1FC38BB696E204602F09CFC81
:1040900010BBA96E204602F097FCE8B9E96E2046F5
:1040A00002F092FCC0B9296F204602F08DFC98B94D
:1040B000696F204602F088FC70B9A96F204602F0B3
:1040C00083FC48B9E96F204602F07EFC20B9204607
:1040D000BDE8384002F037BD38BD38B5044654F865
:1040E000780B03F080FC054628B920461521BDE871
:1040F000384002F088BD0188204602F056FC40BBE3
:104100006988204602F051FC18BBA988204602F0BD
:104110004CFCF0B9E988204602F047FCC8B929896F
:10412000204602F042FCA0B96989204602F03DFC1D
:1041300078B9A989204602F038FC50B9E9892046AF
:1041400002F033FC28B9298A2046BDE8384002F045
:104150002CBC38BD10B50446006803F0A8FAC0F3C3
:104160004001C0F3C003C0F3800200F00100FEF77D
:10417000E1F80146A06FBDE8104002F016BA37B56D
:10418000054600240DF10701A8308DF8074002F024
:10419000CAFAB0B99DF807302868C3F3C0024FF0DF
:1041A000000162F30001C3F3800262F34101C3F333
:1041B000400262F3820163F3C30103F0A0FA03B08B
:1041C00030BD2046FBE710B5044654F8780B03F0E9
:1041D0002DFA01462046BDE8104002F0F5BB37B588
:1041E0000023054601A9A830019302F0DEFA044637
:1041F00018B90199286803F01DFA204603B030BDB4
:1042000010B5044654F8780B03F038FB01462046FD
:10421000BDE8104002F0C9BB90F83913806FFEF77B
:1042200079B800F23931A83002F08DBA30B585B0D6
:10423000002300F1A80504460293ADF8043003936F
:10424000ADF8063001AA4FF4807302A92846ADF8F4
:10425000003002F04AFB38B1D4F84C330133C4F8D3
:104260004C33002005B030BD0DF1060203A92846ED
:1042700002F030FB0028EFD16B46BDF80420029914
:10428000206802F049FF054670B1012103F0EDF806
:104290002946206802F02BFF0028DDD0D4F85C33DB
:1042A0000133C4F85C33DDE70320F7E707B50023EB
:1042B0000DF10701A8308DF8073002F034FA28B963
:1042C0009DF80730012B0CBF0C20072003B05DF8D0
:1042D00004FB13B504460DF10601A83002F051FAB3
:1042E00020B9BDF80610206802F01BFF02B010BD17
:1042F00037B504460DF10601A83002F042FA054632
:1043000038B9BDF80610206802F010FF172808BF62
:10431000284603B030BD10B50446006802F015FF12
:104320000146A06FBDE81040FDF7F4BF37B5054664
:104330000DF10701A83002F006FA044620B99DF8F5
:104340000710286802F005FF204603B030BDF8B51D
:1043500006460D46002978D091F839301F019A069B
:1043600007F0F00700F1780448BF47F00107072283
:10437000DB064FF080014FF03303204648BF47F083
:10438000080702F022FC002858D195F83610B06FCB
:1043900002F00BF9002851D195F937102046FDF7AE
:1043A000C1FF00284AD1204602F0AEFB002845D1CB
:1043B00029462046FDF760FA00283FD14FF6FF71ED
:1043C000204602F0F2FAC8BB698E204602F0EDFAF0
:1043D000A0BB95F83810B06F02F0E7F870BB20462C
:1043E00002F0B1FB50BB204602F08EFB30BB032134
:1043F000204602F036FB08BB3946B06F02F0D5F814
:10440000E0B905F10801204602F066FBB0B90822C8
:1044100005F11901204602F04FFB78B995F82120EB
:1044200005F12201204602F047FB38B9204602F090
:104430008AFB18B9204602F0ABFB80B10B220021A9
:1044400006F1E00002F0F4FB03E03021E030FDF77C
:1044500063FF06F1D400BDE8F84004F0C5BAF8BD2A
:104460000B4601461846FFF772BF70B504460E466C
:10447000F1B100F17805392307228021284602F0A6
:10448000A4FB70B93178A06F02F08FF848B996F9A3
:1044900001102846FDF746FF18B9284602F078FBC0
:1044A00080B10B22002104F1E00002F0C1FB03E027
:1044B0003021E030FDF730FF04F1D400BDE870405A
:1044C00004F092BA70BD0B4601461846FFF7CDBF07
:1044D000F8B5044608460E4602F0C3FF04F178051D
:1044E000071E14BF7223732306228021284602F080
:1044F0006CFBB0B9304602F0B2FF0146284602F02C
:1045000054FA70B93146A06F02F020F848B9284635
:1045100002F03EFB28B92FB1D4F850330133C4F870
:104520005033F8BDD4F854330133C4F85433F8E7AA
:10453000F8B5074600F55176304602F0B2FF044662
:1045400080B10146304602F0AAFF21463846FFF707
:10455000BFFF05460028EFD02146304602F09CFF01
:104560002846F8BD0546FBE710B5044679B100F5CD
:10457000517002F08EFF50B994F8FA2294F8FB3291
:104580009A4204D12046BDE81040FFF7D1BF10BDCC
:104590000B4601461846FFF7E7BFF0B587B000238A
:1045A0000493ADF80A3007464FF4807302A90068FF
:1045B000ADF8083002F0A3FD054688B307F1A80660
:1045C0000DF10A0204A9304602F08FF9044648BBF7
:1045D00003A9304602F0D5F8044618BB05A93046B9
:1045E000FDF79DFE0446E8B90DF10E01304602F0DC
:1045F000C8F80446B0B9BDF80A200499284602F06C
:104600003BFF044670B9BDF80E300093BDF80C2096
:10461000059B3868294603F0B4FA204607B0F0BD80
:104620000324FAE7284602F018FFF6E72DE9F047E1
:10463000064608460D4691469846BDF8207002F0A1
:104640000EFF06F17804824641F2245306228021AF
:10465000204602F0BAFA10B12DBBBDE8F0875146F2
:10466000204602F0A2F90028F6D12946B06F01F0E9
:104670006DFF0028F0D14946204602F096F9002847
:10468000EAD141462046FDF751FE0028E4D13946E3
:10469000204602F08AF90028DED1204602F078FA9E
:1046A0000028DAD0D8E72846BDE8F04702F0D5BEAA
:1046B00010B4019C019313460A46014620465DF85A
:1046C000044BFFF7B3BFF8B590F83B3306460D46F1
:1046D0001746CBB300F178047123062280212046CF
:1046E00002F073FA80BB2979204602F05EF958BBCC
:1046F0002A792968B06F01F06AFF28BB95F90C1080
:104700002046FDF70FFEF8B96FF07F012046FDF758
:1047100009FEC8B93946204602F047F9A0B920463B
:1047200002F0F2F980B9204602F00DFA60B9204695
:1047300002F0EAF940B9204602F005FA20B9204615
:10474000BDE8F84002F024BAF8BD13460A46014617
:104750001846FFF7B8BF90F83B13806FFDF7DABD3E
:1047600037B504460DF10701A83001F0ECFF05460E
:1047700068B99DF8073094F83B239A4207D084F833
:104780003B33206833B10549224602F085FD2846B7
:1047900003B030BD2A462946F7E700BF4B4700006B
:1047A000D1F8DC301843C1F8DC0001F1D40004F08A
:1047B0001BB900002DE9F041D0F8DC300446002B95
:1047C0005AD05B072DD590F8393353B3006803F006
:1047D00037F8012807D9002384F83933492104F137
:1047E000E000FDF799FD206803F02AF8042818D1AD
:1047F000206803F0D9F8A0B1D4F8DC30254623F0C6
:104800008003C4F8DC3055F8E00B002103F09BF87E
:1048100042212846FDF780FD68220021284602F04B
:1048200007FA1A4D002704F1E0082E68D4F8DC30AE
:104830001E4208D10137142F05F10805F5D10023D8
:10484000C4F8DC3018E06968522917D04046FDF7FB
:1048500063FDB6F5007F07D15A214046FDF75CFDA8
:104860005B214046FDF758FDD4F8DC3023EA06030F
:10487000C4F8DC30002BDDD1BDE8F08194F83D3385
:10488000002284F83D23002BE0D1E2E7D8D30300D7
:10489000F8B500F1780406460D46174680217123CD
:1048A0000622204602F091F9014600284AD1002F45
:1048B00044D12A792968204602F0FEF8002841D127
:1048C000297BB06F01F071FE00283BD18021B06FD1
:1048D00001F06BFE0146A8BB204602F066F888BBDB
:1048E000204602F011F968BB6979B06F01F05DFEF6
:1048F00040BB697BB06F01F058FE18BB29692046A8
:1049000002F062F8F0B9E989204602F04EF8C8B921
:10491000204602F018F9A8B9204602F0F5F888B947
:104920003946204602F09DF860B9204602F00BF9A6
:1049300040B92046BDE8F84002F02AB9204602F00E
:1049400034F8BBE7F8BD0000014B1868FFF7A0BFC3
:10495000380A00202DE9F04190F83F13064615462D
:104960009846002971D041F080011AB313681F786E
:10497000C7F30017002306F1780486F83F330622B8
:10498000204602F022F900285FD14046FBF7F0FEF6
:104990000146204602F065F8002856D13946B06F2E
:1049A00001F003FE002850D135B92046BDE8F041A2
:1049B00002F0EEB81746DDE7B8F1000FF5D129791E
:1049C000204601F0F2FF00283FD12A792968B06F14
:1049D00001F0FDFD002838D1297BB06F01F0E5FD25
:1049E00098BB8021B06F01F0E0FD70BB41462046CE
:1049F00001F0DBFF48BB204602F086F828BB69794E
:104A0000B06F01F0D2FD00BB697BB06F01F0CDFD4E
:104A1000D8B92969204601F0D7FFB0B9E989204605
:104A200001F0C3FF88B9204602F08DF868B920462E
:104A300002F06AF8014640B9204602F012F820B9A7
:104A4000204602F080F80028AFD0BDE8F0810000D9
:104A500001480068FFF77EBF380A0020F8B5FF2341
:104A6000044690F9407380F84033054654F8780BBB
:104A70000E46154902F079FC392306228021204692
:104A800002F0A3F8F0B9F9B2A86F01F08EFDC8B931
:104A9000F1B2A86F01F089FDA0B9204602F078F8C4
:104AA00080B9802130230622204602F08EF801468C
:104AB00040B9A86F01F079FD20B92046BDE8F84063
:104AC00002F066B8F8BD00BF49490000014B186804
:104AD000FFF7C4BF380A002010B5044654F8780B1D
:104AE00002F052FC01462046BDE8104001F0B9BF7B
:104AF00090F84113806F01F058BD10B500F24131BC
:104B00000446A83001F01FFE30B994F84113206824
:104B1000BDE8104002F042BC10BD73B50446006809
:104B200002F081FC0546B8B904F1A806B4F8B0302B
:104B3000B4F8AE209B1A9BB2012B0DD90DF10601E2
:104B4000304601F01EFE30B9BDF80610206802F0B4
:104B500030FC0028EAD00546284602B070BD73B587
:104B60000446006802F06AFC0546B0B904F1A806E4
:104B7000B4F8B030B4F8AE209B1A9BB2072B0CD916
:104B8000082201A9304601F067FE28B90199206882
:104B900002F017FC0028EBD00546284602B070BD95
:104BA00013B504460DF10601A83001F0EAFD20B965
:104BB000BDF80610206802F019FC02B010BD13B554
:104BC0000822044601A9A83001F046FE18B901994F
:104BD000206802F013FC02B010BD13B504460DF1BD
:104BE0000601A83001F0CDFD20B9BDF806102068FF
:104BF00002F0DFFB02B010BD13B50023044608220B
:104C000001A9A830019301F027FE18B90199206885
:104C100002F0D7FB02B010BD13B5002304460DF11E
:104C20000701A8308DF8073001F08DFD60B99DF8BF
:104C30000730206853B994F83A330BB102F08DFB7A
:104C40000021206802F07BFB02B010BD012102F0C0
:104C500076FB0028F8D194F83A33002BF4D00249BF
:104C6000206802F082FBEFE74949000013B50446D3
:104C70000DF10601A83001F084FD20B9BDF8061041
:104C8000206802F065FB02B010BD73B500F1A80604
:104C90000C460DF1020201A9304601F026FE054640
:104CA00078BBBDF802207F2A2ED82546227155F800
:104CB000050B019936F0CCFE2946304601F033FD54
:104CC0000546F0B94FF44873A381A37B43F0020378
:104CD000A37304F10C01304601F025FD88B904F1FD
:104CE0000D01304601F01FFD58B90DF101013046AC
:104CF00001F029FD28B9A37B9DF8012062F341034F
:104D0000A373284602B070BD0625FAE738B50446FD
:104D100000680D4602F018FBE8B1206802F02AFB9B
:104D20000146D0B12046FFF7B0FF034648B905F071
:104D30000F0384F83F330A49206802F020FB034642
:104D400068B11846FBF714FD294602462046BDE827
:104D50003840FBF7B2BE0D23F3E70323F1E738BD7C
:104D6000514A000040F207539A4200F0A084B2F585
:104D7000A16F80F04881462A00F00C8400F29280F6
:104D8000262A00F0658344D8082A00F041831FD802
:104D9000032A00F04B830AD8012A4FF0000300F0E9
:104DA000A68340F24883CD4AC0E900237047052A14
:104DB0004FF0000300F01E83C0F0C083062A00F00D
:104DC0003183072A00F08A830023C0E9003370474B
:104DD000202A00F034830CD80C2A00F01E830D2A00
:104DE00000F08083092AEFD1BD4B036000234360AC
:104DF0007047222A4FF0000300F0A483C0F0248300
:104E0000232A00F0B583252ADED1B64AC0E9002363
:104E10007047362A00F06F8320D8302A00F07C8358
:104E20000CD8282A4FF0000300F09083C0F01583BF
:104E3000292AC9D1AC4AC0E900237047322A4FF071
:104E4000000300F07283C0F06C83342A00F05883B2
:104E5000352AB9D1A54AC0E900237047412A00F09C
:104E60008B830FD8382A4FF0000300F05183C0F035
:104E70004B833A2A00F06E83402AA5D19C4AC0E9B0
:104E800000237047432A4FF0000300F09083C0F0E6
:104E90009283442A00F08383452A95D1954AC0E93C
:104EA000002370475D2A00F08A834FD8532A00F010
:104EB0009A8325D84A2A00F068830AD8482A4FF0F6
:104EC000000300F0708340F25C838B4AC0E900234A
:104ED0007047502A00F0828307D84B2A7FF474AFC2
:104EE000864B0360002343607047512A00F08C8397
:104EF000522A7FF469AF824B0360002343607047FE
:104F0000582A00F0988310D8552A4FF0000300F07B
:104F1000F484C0F0E584562A00F08983572A7FF490
:104F200053AF784AC0E9002370475A2A4FF0000374
:104F300000F06683C0F077835B2A00F05D835C2A13
:104F40007FF442AF704AC0E900237047672A00F03F
:104F5000878322D8622A00F08C830DD8602A4FF014
:104F6000000300F0828300F289835E2A7FF42CAF75
:104F7000664AC0E900237047642A4FF0000300F03E
:104F80008183C0F06583652A00F06683662A7FF41A
:104F90001BAF5F4AC0E90023704740F202539A42B8
:104FA00000F0748318D8842A00F0CD8407D8822AB0
:104FB0007FF40AAF574B0360002343607047852A94
:104FC00000F0C68440F201539A427FF4FDAE524B8A
:104FD000036000234360704740F204539A424FF04D
:104FE000000300F05C83C0F0568340F205518A4212
:104FF00000F0598340F206518A427FF4E5AE474AF9
:10500000C0E90023704740F233639A4200F06384A2
:1050100000F2F78040F26E539A4200F08D8300F266
:10502000878040F265539A4200F05F8329D840F2AE
:105030000B539A4200F050830CD840F209539A4225
:105040004FF0000300F03C8340F23683344AC0E95D
:105050000023704740F20D539A424FF0000300F0D6
:105060003783C0F0318340F20E518A4200F0398319
:1050700040F264518A427FF4A7AE2A4AC0E9002375
:10508000704740F269539A4200F03D830ED840F2D7
:1050900067539A4200F03283B2F5AD6F4FF00003D0
:1050A000C0F02883204AC0E90023704740F26B53C8
:1050B0009A424FF0000300F02F83C0F0298340F2A2
:1050C0006C518A4200F0348340F26D518A427FF481
:1050D0007BAE164AC0E90023704700BFEF13000003
:1050E0003F140000851700003F180000F50F000076
:1050F0002D24000081250000194200000D1C000035
:10510000391A000091260000852900005541000051
:10511000B9360000BF1D0000913A0000093B0000B5
:10512000693B0000E13B0000413C0000013D000004
:1051300040F2CA539A4200F0AE8327D840F272532D
:105140009A4200F095830BD8B2F5AE6F4FF0000392
:1051500000F08A8340F2F582C24AC0E9002370471A
:1051600040F274539A424FF0000300F0DD82C0F029
:10517000D782B2F5B96F00F08A8340F2C9518A42F2
:105180007FF422AEB84AC0E90023704740F22D6395
:105190009A4200F0918316D840F2CC539A424FF0D5
:1051A000000300F08183C0F07B8340F2CD518A423E
:1051B00000F07E8340F22C618A427FF405AEAB4A58
:1051C000C0E900237047B2F5C66F00F07A8309D8B2
:1051D00040F22E639A427FF4F7ADA54B03600023A3
:1051E0004360704740F231639A4200F06F8340F2AF
:1051F00032639A427FF4E8AD9E4B03600023436024
:10520000704741F20A539A4200F0938300F2818082
:1052100041F209339A4200F0A68137D841F20803DF
:105220009A4200F0868112D840F291639A4200F0CF
:10523000248340F292639A4200F02483B2F5D26F45
:105240007FF4C2AD8C4B036000234360704741F292
:105250000B239A4200F0818309D841F209039A4254
:105260007FF4B2AD854B036000234360704741F289
:1052700002339A4200F0728141F203339A427FF482
:10528000A3AD7F4B036000234360704741F204539A
:105290009A4200F049831DD841F201539A4200F02E
:1052A000B88108D8B2F5A85F7FF48EAD754B036066
:1052B00000234360704741F202539A4200F02A8370
:1052C00041F203539A427FF47FAD6F4B036000239A
:1052D0004360704741F207539A4200F0128309D8A5
:1052E00041F206539A427FF46FAD684B036000238E
:1052F0004360704741F208539A4200F0108341F234
:1053000009539A427FF460AD614B03600023436010
:10531000704741F217539A4200F0EA8231D841F2C5
:105320000E539A4200F07A810CD841F20C539A4203
:105330004FF0000300F0EA8240F25A81554AC0E97A
:105340000023704741F213539A4200F03D8109D87F
:1053500041F210539A427FF437AD4F4B0360002364
:105360004360704741F214539A4200F0328141F297
:1053700015539A427FF428AD484B036000234360E5
:10538000704741F223539A4200F0D88216D841F276
:1053900019539A424FF0000300F05681C0F050813B
:1053A00041F221518A4200F09F8241F222518A4209
:1053B0007FF40AAD3A4AC0E900237047B2F5804F46
:1053C0001CD009D841F60E139A427FF4FDAC354B40
:1053D000036000234360704744F201039A4212D0F5
:1053E00044F202039A427FF4EFAC2F4B0360002398
:1053F000436070472D4AC0E9002370472C4B03607F
:105400000023436070472B4B0360002343607047C9
:10541000294B0360002343607047284B036000233F
:1054200043607047264AC0E900237047254B03605C
:10543000002343607047244AC0E900237047234B90
:105440000360002343607047214AC0E9002370478E
:10545000204B03600023436070471F4AC0E90023CC
:10546000704700BF613D0000833D0000B53D000076
:10547000C93D0000033E0000333E0000211700003C
:10548000F14A0000C7410000471D00008D370000B1
:10549000091D000011270000632100008B2C000073
:1054A0000729000017430000D91700004913000026
:1054B000D7170000DB170000251400004714000078
:1054C000051400003913000011130000C30E000082
:1054D000D90E0000591700006F1700009B4AC0E961
:1054E000002370479A4B0360002343607047994A3A
:1054F000C0E900237047984B036000234360704766
:10550000964AC0E900237047954AC0E900237047D6
:10551000944AC0E900237047934B03600023436023
:105520007047924AC0E900237047914AC0E90023BE
:105530007047904B03600023436070478E4AC0E978
:10554000002370478D4AC0E9002370478C4AC0E9A8
:10555000002370478B4AC0E9002370478A4B0360E1
:10556000002343607047894B03600023436070470A
:10557000874AC0E900237047864B036000234360DD
:105580007047854AC0E900237047844B03600023BD
:1055900043607047824B0360002343607047814A39
:1055A000C0E900237047804AC0E9002370477F4A62
:1055B000C0E9002370477E4AC0E9002370477D4B55
:1055C00003600023436070477B4B0360002343600C
:1055D00070477A4B0360002343607047784B036049
:1055E000002343607047774B03600023436070479C
:1055F000754AC0E900237047744AC0E90023704728
:10560000734AC0E900237047724B03600023436074
:105610007047714B03600023436070476F4B03601A
:105620000023436070476E4AC0E9002370476D4A0B
:10563000C0E9002370476C4B036000234360704750
:105640006A4AC0E900237047694AC0E900237047ED
:10565000684AC0E900237047674AC0E900237047E1
:10566000664B0360002343607047654AC0E900232E
:105670007047644B0360002343607047624AC0E98F
:1056800000237047614AC0E900237047604B036004
:105690000023436070475F4AC0E9002370475E4AB9
:1056A000C0E9002370475D4AC0E9002370475C4BA6
:1056B00003600023436070475A4AC0E900237047E3
:1056C000594AC0E900237047584AC0E9002370478F
:1056D000574AC0E900237047564B036000234360DC
:1056E0007047554AC0E900237047544B03600023BC
:1056F00043607047524AC0E900237047514B036032
:10570000002343607047504B0360002343607047A1
:105710004E4AC0E9002370474D4AC0E90023704754
:105720004C4AC0E9002370474B4AC0E90023704748
:105730004A4AC0E900237047494B03600023436095
:105740007047484AC0E90023704700BF19140000A1
:105750000D1400001B1300008B0F0000C10F000090
:105760000D100000350F000007110000D1100000DF
:10577000F310000019120000411300002918000066
:10578000574700005123000083230000793A0000AE
:1057900099230000432400000D2600005B26000032
:1057A000C72500004725000043260000DD24000037
:1057B0007D2400000F2A0000632C0000772C0000DD
:1057C0007B270000652700003D280000D53700003A
:1057D000552A0000A5270000014200003B270000D9
:1057E000A7260000BD260000E7260000BF2F00000E
:1057F000D92F00008D3500006F36000031370000D2
:1058000075350000F33400005D3500006736000098
:10581000A93A0000C13A0000D93A0000F13A00006C
:10582000213B0000393B0000513B0000993B000048
:10583000B13B0000813B0000C93B0000F93B000088
:10584000113C0000293C0000593C0000713C000064
:10585000893C0000B93C0000D13C0000E93C00005C
:10586000193D0000313D00003E4AC0E90023704769
:105870003D4B03600023436070473C4B03600023B3
:10588000436070473A4B0360002343607047394AD6
:10589000C0E900237047384B036000234360704722
:1058A000364AC0E900237047354AC0E900237047F3
:1058B000344AC0E900237047334B03600023436040
:1058C0007047324B0360002343607047304B0360E6
:1058D0000023436070472F4B0360002343607047F1
:1058E0002D4AC0E9002370472C4AC0E900237047C5
:1058F0002B4B03600023436070472A4AC0E9002312
:105900007047294B0360002343607047274AC0E972
:1059100000237047264B0360002343607047254BEC
:105920000360002343607047234B03600023436000
:105930007047224B0360002343607047204B036095
:105940000023436070471F4B036000234360704790
:105950001D4B03600023436070471C4B0360002312
:1059600043607047493D0000A13C0000113F00002A
:10597000DB400000793D00008D3D0000973D0000B8
:10598000A13D0000AB3D0000BF3D0000D33D000045
:10599000EB3D00001B3E0000231A0000471B0000E7
:1059A0008D1A00000D1A0000D51B0000531C0000CA
:1059B0008D1C0000CB1C0000811D00002122000076
:1059C00071220000B51E0000071F0000D94A000028
:1059D000732A00F05B817DD8412A00F049813CD8D0
:1059E000302A00F03F8119D8212A00F02D810BD8F0
:1059F0000D2A00F02381202A00F0F681072A1BD10E
:105A0000B54B0360002325E1252A00F01B81282ADD
:105A100000F02C81222A0FD1B04BF2E7352A00F09A
:105A2000DD810CD8322A4FF0000300F01D81C0F058
:105A30001781342A00F01081002303600AE1372A1D
:105A40004FF0000300F00A81C0F00281382A00F014
:105A5000FD803A2AF0D1A24BD3E74B2A00F03881DF
:105A60001AD8452A00F00A8108D8432A4FF00003CB
:105A700000F0028140F2FE809A4AEAE0472A4FF0A5
:105A8000000300F0FF80C0F0FB80492A00F00A818B
:105A90004A2AD1D1944BB4E75E2A00F001810AD89A
:105AA0005C2A4FF0000300F0EF8000F20181552ADC
:105AB000C2D18E4BA5E7652A00F0EA8003D8622A9E
:105AC000BAD18B4B9DE7672A00F0E480722AB3D1EC
:105AD000884B96E741F20C539A4200F06D8151D801
